S00E00007461736B30312E7372656302
S11300000C9434000C9455000C9449000C94490051
S11300100C9449000C9449000C9449000C94490038
S11300200C9449000C9449000C9449000C94490028
S11300300C9449000C9449000C9449000C94490018
S11300400C9449000C9449000C9449000C94490008
S11300500C9449000C9449000C9449000C944900F8
S11300600C9449000C94490011241FBECFEFD8E032
S1130070DEBFCDBF11E0A0E0B1E0E2E4F1E002C0F8
S113008005900D92AA30B107D9F70E945F000C9435
S11300909F000C9400008DB383608DBBE9E6F0E013
S11300A080818A608083789408951F920F920FB69E
S11300B00F9211240F900FBE0F901F9018959FEF71
S11300C097B98AB188708AB9549A94B90E944B003E
S11300D051E0E0E0F1E042E030E124E098E055B99D
S11300E0818188B9AFE4B3EC1197F1F700C0000047
S11300F045B9808588B9ABE1B1E41197F1F7000007
S11301003BB9ABE1B1E41197F1F700001BB8ABE1E7
S1130110B1E41197F1F7000025B9858188B9AFE4FE
S1130120B3EC1197F1F700C0000095B9868188B946
S1130130AFE4B3EC1197F1F700C00000D0CFF8940E
S1050140FFCFEB
S10D01423F065B4F666D7D07FFEF7B
S9030000FC
